{
  "address": "0x95Be39b5baBBd83Ee9D4dacd3ee39DA84C3db3D8",
  "abi": [
    {
      "inputs": [
        {
          "internalType": "address",
          "name": "router_",
          "type": "address"
        },
        {
          "internalType": "address",
          "name": "poolManager_",
          "type": "address"
        },
        {
          "internalType": "address",
          "name": "permit2_",
          "type": "address"
        },
        {
          "internalType": "address",
          "name": "quoter_",
          "type": "address"
        },
        {
          "internalType": "address",
          "name": "cUSDC_",
          "type": "address"
        },
        {
          "internalType": "address",
          "name": "cUNI_",
          "type": "address"
        }
      ],
      "stateMutability": "nonpayable",
      "type": "constructor"
    },
    {
      "inputs": [],
      "name": "InvalidKMSSignatures",
      "type": "error"
    },
    {
      "inputs": [],
      "name": "MissingDistinctUsers",
      "type": "error"
    },
    {
      "inputs": [],
      "name": "RoundNotFinalized",
      "type": "error"
    },
    {
      "inputs": [],
      "name": "TooEarlyForNextRound",
      "type": "error"
    },
    {
      "inputs": [],
      "name": "ZamaProtocolUnsupported",
      "type": "error"
    },
    {
      "anonymous": false,
      "inputs": [
        {
          "indexed": false,
          "internalType": "bytes32[]",
          "name": "handlesList",
          "type": "bytes32[]"
        },
        {
          "indexed": false,
          "internalType": "bytes",
          "name": "abiEncodedCleartexts",
          "type": "bytes"
        }
      ],
      "name": "PublicDecryptionVerified",
      "type": "event"
    },
    {
      "anonymous": false,
      "inputs": [
        {
          "indexed": true,
          "internalType": "uint256",
          "name": "round",
          "type": "uint256"
        },
        {
          "indexed": false,
          "internalType": "euint64",
          "name": "netAmount",
          "type": "bytes32"
        }
      ],
      "name": "RoundUpdated",
      "type": "event"
    },
    {
      "inputs": [],
      "name": "MIN_DISTINCT_USERS",
      "outputs": [
        {
          "internalType": "uint256",
          "name": "",
          "type": "uint256"
        }
      ],
      "stateMutability": "view",
      "type": "function"
    },
    {
      "inputs": [],
      "name": "MIN_TIME_BETWEEN_ROUNDS",
      "outputs": [
        {
          "internalType": "uint256",
          "name": "",
          "type": "uint256"
        }
      ],
      "stateMutability": "view",
      "type": "function"
    },
    {
      "inputs": [],
      "name": "UNI",
      "outputs": [
        {
          "internalType": "address",
          "name": "",
          "type": "address"
        }
      ],
      "stateMutability": "view",
      "type": "function"
    },
    {
      "inputs": [],
      "name": "USDC",
      "outputs": [
        {
          "internalType": "address",
          "name": "",
          "type": "address"
        }
      ],
      "stateMutability": "view",
      "type": "function"
    },
    {
      "inputs": [],
      "name": "cUNI",
      "outputs": [
        {
          "internalType": "address",
          "name": "",
          "type": "address"
        }
      ],
      "stateMutability": "view",
      "type": "function"
    },
    {
      "inputs": [],
      "name": "cUSDC",
      "outputs": [
        {
          "internalType": "address",
          "name": "",
          "type": "address"
        }
      ],
      "stateMutability": "view",
      "type": "function"
    },
    {
      "inputs": [],
      "name": "callNextRound",
      "outputs": [],
      "stateMutability": "nonpayable",
      "type": "function"
    },
    {
      "inputs": [],
      "name": "confidentialProtocolId",
      "outputs": [
        {
          "internalType": "uint256",
          "name": "",
          "type": "uint256"
        }
      ],
      "stateMutability": "view",
      "type": "function"
    },
    {
      "inputs": [],
      "name": "currentNumberOfUsers",
      "outputs": [
        {
          "internalType": "uint256",
          "name": "",
          "type": "uint256"
        }
      ],
      "stateMutability": "view",
      "type": "function"
    },
    {
      "inputs": [],
      "name": "currentRound",
      "outputs": [
        {
          "internalType": "uint256",
          "name": "",
          "type": "uint256"
        }
      ],
      "stateMutability": "view",
      "type": "function"
    },
    {
      "inputs": [
        {
          "internalType": "bytes",
          "name": "abiEncodedClearValues",
          "type": "bytes"
        },
        {
          "internalType": "bytes",
          "name": "decryptionProof",
          "type": "bytes"
        }
      ],
      "name": "executeRound",
      "outputs": [],
      "stateMutability": "nonpayable",
      "type": "function"
    },
    {
      "inputs": [
        {
          "internalType": "uint256",
          "name": "round",
          "type": "uint256"
        }
      ],
      "name": "executed",
      "outputs": [
        {
          "internalType": "bool",
          "name": "",
          "type": "bool"
        }
      ],
      "stateMutability": "view",
      "type": "function"
    },
    {
      "inputs": [],
      "name": "lastUpdateTime",
      "outputs": [
        {
          "internalType": "uint256",
          "name": "",
          "type": "uint256"
        }
      ],
      "stateMutability": "view",
      "type": "function"
    },
    {
      "inputs": [],
      "name": "nextRoundDelta",
      "outputs": [
        {
          "internalType": "euint64",
          "name": "",
          "type": "bytes32"
        }
      ],
      "stateMutability": "view",
      "type": "function"
    },
    {
      "inputs": [
        {
          "internalType": "address",
          "name": "operator",
          "type": "address"
        },
        {
          "internalType": "address",
          "name": "from",
          "type": "address"
        },
        {
          "internalType": "euint64",
          "name": "eAmount",
          "type": "bytes32"
        },
        {
          "internalType": "bytes",
          "name": "data",
          "type": "bytes"
        }
      ],
      "name": "onConfidentialTransferReceived",
      "outputs": [
        {
          "internalType": "ebool",
          "name": "success",
          "type": "bytes32"
        }
      ],
      "stateMutability": "nonpayable",
      "type": "function"
    },
    {
      "inputs": [],
      "name": "permit2",
      "outputs": [
        {
          "internalType": "contract IPermit2",
          "name": "",
          "type": "address"
        }
      ],
      "stateMutability": "view",
      "type": "function"
    },
    {
      "inputs": [],
      "name": "poolManager",
      "outputs": [
        {
          "internalType": "contract IPoolManager",
          "name": "",
          "type": "address"
        }
      ],
      "stateMutability": "view",
      "type": "function"
    },
    {
      "inputs": [],
      "name": "quoter",
      "outputs": [
        {
          "internalType": "contract IV4Quoter",
          "name": "",
          "type": "address"
        }
      ],
      "stateMutability": "view",
      "type": "function"
    },
    {
      "inputs": [
        {
          "internalType": "uint256",
          "name": "round",
          "type": "uint256"
        }
      ],
      "name": "roundDelta",
      "outputs": [
        {
          "internalType": "euint64",
          "name": "roundDelta",
          "type": "bytes32"
        }
      ],
      "stateMutability": "view",
      "type": "function"
    },
    {
      "inputs": [],
      "name": "router",
      "outputs": [
        {
          "internalType": "contract IUniversalRouter",
          "name": "",
          "type": "address"
        }
      ],
      "stateMutability": "view",
      "type": "function"
    },
    {
      "inputs": [
        {
          "internalType": "uint256",
          "name": "round",
          "type": "uint256"
        }
      ],
      "name": "totalReceivedAmount",
      "outputs": [
        {
          "internalType": "uint64",
          "name": "amount",
          "type": "uint64"
        }
      ],
      "stateMutability": "view",
      "type": "function"
    },
    {
      "inputs": [
        {
          "internalType": "uint256",
          "name": "round",
          "type": "uint256"
        }
      ],
      "name": "totalRequestedAmount",
      "outputs": [
        {
          "internalType": "uint64",
          "name": "amount",
          "type": "uint64"
        }
      ],
      "stateMutability": "view",
      "type": "function"
    },
    {
      "inputs": [
        {
          "internalType": "uint256",
          "name": "",
          "type": "uint256"
        },
        {
          "internalType": "address",
          "name": "",
          "type": "address"
        }
      ],
      "name": "userAmounts",
      "outputs": [
        {
          "internalType": "euint64",
          "name": "",
          "type": "bytes32"
        }
      ],
      "stateMutability": "view",
      "type": "function"
    },
    {
      "inputs": [
        {
          "internalType": "uint256",
          "name": "roundId",
          "type": "uint256"
        }
      ],
      "name": "withdraw",
      "outputs": [],
      "stateMutability": "nonpayable",
      "type": "function"
    }
  ],
  "transactionHash": "0xed593f11eea4f235e96b2bad62bd02ab8c7f377737a54690f5037df89798537d",
  "args": [
    "0x3A9D48AB9751398BbFa63ad67599Bb04e4BdF98b",
    "0xE03A1074c86CFeDd5C142C4F04F1a1536e203543",
    "0x000000000022D473030F116dDEE9F6B43aC78BA3",
    "0x61b3f2011a92d183c7dbadbda940a7555ccf9227",
    "0xb5a33983Abe09102D006b00d7bd7B424c038f809",
    "0xd190201eEEdcDFeCD1AC53c8E5f3B26ff0b2bB3B"
  ],
  "numDeployments": 11,
  "solcInputHash": "9d717c7bbae035e4d28033abc47d04e6",
  "bytecode": "0x610100604052348015610010575f5ffd5b5060405161224338038061224383398101604081905261002f916102fe565b6100e361003a610134565b80517f9e7b61f58c47dc699ac88507c4f5bb9f121c03808c5676a8078fe583e464970080546001600160a01b03199081166001600160a01b039384161790915560208301517f9e7b61f58c47dc699ac88507c4f5bb9f121c03808c5676a8078fe583e46497018054831691841691909117905560408301517f9e7b61f58c47dc699ac88507c4f5bb9f121c03808c5676a8078fe583e46497028054909216921691909117905550565b600a80546001600160a01b03199081166001600160a01b0394851617909155600b805490911691831691909117905593841660805291831660a052821660c0521660e05260015f554260025561036e565b604080516060810182525f8082526020820181905291810191909152466001036101cd575060408051606080820183525f8083526020808401829052928401528251908101835273ca2e8f1f656cd25c01f05d0b243ab1ecd4a8ffb6815273d82385dada1ae3e969447f20a3164f6213100e75918101919091527377627828a55156b04ac0dc0eb30467f1a552bb039181019190915290565b4662aa36a70361024c575060408051606080820183525f8083526020808401829052928401528251908101835273f0ffdc93b7e186bc2f8cb3daa75d86d1930a433d81527392c920834ec8941d2c77d188936e1f7a6f49c1279181019190915273be0e383937d564d7ff0bc3b46c51f0bf8d5c311a9181019190915290565b46617a69036102ca575060408051606080820183525f808352602080840182905292840152825190810183527350157cffd6bbfa2dece204a89ec419c23ef5755d815273e3a9105a3a932253a70f126eb1e3b589c643dd249181019190915273901f8942346f7ab3a01f6d7613119bca447bb0309181019190915290565b6040516373cac13b60e01b815260040160405180910390fd5b80516001600160a01b03811681146102f9575f5ffd5b919050565b5f5f5f5f5f5f60c08789031215610313575f5ffd5b61031c876102e3565b955061032a602088016102e3565b9450610338604088016102e3565b9350610346606088016102e3565b9250610354608088016102e3565b915061036260a088016102e3565b90509295509295509295565b60805160a05160c05160e051611e7f6103c45f395f818161033701526105e901525f81816101f301528181610f46015261104801525f6103ac01525f81816103ef0152818161100301526110b40152611e7f5ff3fe608060405234801561000f575f5ffd5b506004361061018e575f3560e01c80638a19c8bc116100dd578063d3ecebd711610088578063f355439f11610063578063f355439f146103d7578063f887ea40146103ea578063f89a4f7414610322575f5ffd5b8063d3ecebd714610375578063dc4c90d3146103a7578063e3dca81d146103ce575f5ffd5b8063c6bbd5a7116100b8578063c6bbd5a714610332578063c8f33c9114610359578063ce347a3e14610362575f5ffd5b80638a19c8bc1461031a578063961463fb14610322578063a1fe84f31461032a575f5ffd5b806346083bfd1161013d578063844158841161011857806384415884146102ce5780638927b030146102f757806389a30271146102ff575f5ffd5b806346083bfd14610276578063541bcb761461028957806369ee70fd146102a4575f5ffd5b80632541714d1161016d5780632541714d1461022d5780632e1a7d4d1461025a5780633db56aab1461026d575f5ffd5b8062b14760146101925780630d67463d146101a757806312261ee7146101ee575b5f5ffd5b6101a56101a03660046118cf565b610411565b005b6101d06101b5366004611934565b60086020525f908152604090205467ffffffffffffffff1681565b60405167ffffffffffffffff90911681526020015b60405180910390f35b6102157f000000000000000000000000000000000000000000000000000000000000000081565b6040516001600160a01b0390911681526020016101e5565b61024c61023b366004611934565b60066020525f908152604090205481565b6040519081526020016101e5565b6101a5610268366004611934565b610827565b61024c60015481565b61024c610284366004611966565b6109ff565b610215731f9840a85d5af5bf1d1762f925bdaddc4201f98481565b61024c6102b23660046119fb565b600560209081525f928352604080842090915290825290205481565b6101d06102dc366004611934565b60096020525f908152604090205467ffffffffffffffff1681565b61024c610b08565b610215731c7d4b196cb0c7b01d743fbc6116a902379c723881565b61024c5f5481565b61024c600181565b6101a5610b16565b6102157f000000000000000000000000000000000000000000000000000000000000000081565b61024c60025481565b600a54610215906001600160a01b031681565b610397610383366004611934565b60076020525f908152604090205460ff1681565b60405190151581526020016101e5565b6102157f000000000000000000000000000000000000000000000000000000000000000081565b61024c60035481565b600b54610215906001600160a01b031681565b6102157f000000000000000000000000000000000000000000000000000000000000000081565b6040805160018082528183019092525f916020808301908036833701905050905061045760065f60015f546104469190611a39565b81526020019081526020015f205490565b815f8151811061046957610469611a4c565b602002602001018181525050610480818484610c6f565b60075f60015f546104919190611a39565b815260208101919091526040015f205460ff16156104f65760405162461bcd60e51b815260206004820152601060248201527f416c72656164792065786563757465640000000000000000000000000000000060448201526064015b60405180910390fd5b600160075f60015f546105099190611a39565b81526020019081526020015f205f6101000a81548160ff0219169083151502179055505f838060200190518101906105419190611a60565b6040805160a081018252731c7d4b196cb0c7b01d743fbc6116a902379c7238808252731f9840a85d5af5bf1d1762f925bdaddc4201f9846020808401829052610bb884860152603c6060808601919091525f608080870182905287519081018852868152600181850181905267ffffffffffffffff8a16828a01528851948501895282855292810193909352955163aa9d21cb60e01b815296975095929491939290919081907f00000000000000000000000000000000000000000000000000000000000000006001600160a01b03169063aa9d21cb90610626908690600401611abc565b60408051808303815f875af1158015610641573d5f5f3e3d5ffd5b505050506040513d601f19601f820116820180604052508101906106659190611b56565b90925090505f6064610678846063611b78565b6106829190611b8f565b90505f6106a7868a67ffffffffffffffff8d16856106a242610384611bae565b610cda565b600b5460405163095ea7b360e01b81526001600160a01b03909116600482015260248101829052909150731f9840a85d5af5bf1d1762f925bdaddc4201f9849063095ea7b3906044016020604051808303815f875af115801561070c573d5f5f3e3d5ffd5b505050506040513d601f19601f820116820180604052508101906107309190611bc1565b50600b54604051635f9bb63d60e11b8152306004820152602481018390526001600160a01b039091169063bf376c7a906044015f604051808303815f87803b15801561077a575f5ffd5b505af115801561078c573d5f5f3e3d5ffd5b505050508960085f60015f546107a29190611a39565b81526020019081526020015f205f6101000a81548167ffffffffffffffff021916908367ffffffffffffffff1602179055508060095f60015f546107e69190611a39565b81526020019081526020015f205f6101000a81548167ffffffffffffffff021916908367ffffffffffffffff16021790555050505050505050505050505050565b5f5481106108775760405162461bcd60e51b815260206004820152601060248201527f496e76616c696420726f756e642049440000000000000000000000000000000060448201526064016104ed565b5f818152600560209081526040808320338452909152902054806108dd5760405162461bcd60e51b815260206004820152601360248201527f496e76616c6964207573657220616d6f756e740000000000000000000000000060448201526064016104ed565b5f8281526005602090815260408083203384529091528120819055805461096c908390600990849061091190600190611a39565b81526020019081526020015f205f9054906101000a900467ffffffffffffffff1660085f60015f546109439190611a39565b815260208101919091526040015f2054610967919067ffffffffffffffff16611be0565b611200565b600b549091506109869082906001600160a01b031661122f565b50600b54604051632df5f6bf60e11b8152336004820152602481018390526001600160a01b0390911690635bebed7e906044016020604051808303815f875af11580156109d5573d5f5f3e3d5ffd5b505050506040513d601f19601f820116820180604052508101906109f99190611c0a565b50505050565b600a545f906001600160a01b03163303610ae8575f805481526005602090815260408083206001600160a01b0389168452909152902054610a409085611252565b5f805481526005602081815260408084206001600160a01b038b168086529083528185209590955583548452918152818320938352929092522054610a8490611280565b505f805481526005602090815260408083206001600160a01b0389168452909152902054610ab290336112a0565b50610abf60015485611252565b6001819055610acd90611280565b50610ad7856112bc565b610ae1600161130d565b9050610af4565b610af15f61130d565b90505b610afe8133611328565b5095945050505050565b5f610b11611337565b905090565b6001600254610b259190611bae565b4211610b44576040516338e6cf8f60e11b815260040160405180910390fd5b60016003541015610b6857604051636d46ef9f60e01b815260040160405180910390fd5b610b7360015461136b565b506001545f80548152600660205260409020819055600a54610b9e91906001600160a01b031661122f565b50600a54600154604051633a3057f560e21b81523060048201819052602482015260448101919091526001600160a01b039091169063e8c15fd4906064016020604051808303815f875af1158015610bf8573d5f5f3e3d5ffd5b505050506040513d601f19601f82011682018060405250810190610c1c9190611c0a565b505f80549080610c2b83611c21565b91905055505f547f2e52074c354b008207abeb354d1d9e75f53bcf47d609abbaee8993bc88294f5a600154604051610c6591815260200190565b60405180910390a2565b5f610c7b848484611386565b905080610c9b5760405163cf6c44e960e01b815260040160405180910390fd5b7fc6366bab028b8d033cb362cfd1f2f3457ef4e92fc738b6788b90d5a7846367a08484604051610ccc929190611c73565b60405180910390a150505050565b60408051600160fc1b60208201528151600181830301815260036021830181815260a184019094525f939192849291906041015b6060815260200190600190039081610d0e5750506040805160018082528183019092529192505f9190602082015b6060815260200190600190039081610d3c57505060408051600360f91b6020820152600360fa1b6021820152600f60f81b60228201528151600381830301815260239091019091529091505f89610d97578a60200151610d9a565b8a515b90505f8a610da9578b51610daf565b8b602001515b90506040518060a001604052808d81526020018c151581526020018b6001600160801b031681526020018a6001600160801b0316815260200160405180602001604052805f815250815250604051602001610e0a9190611c97565b604051602081830303815290604052855f81518110610e2b57610e2b611a4c565b6020026020010181905250818a604051602001610e669291906001600160a01b039290921682526001600160801b0316602082015260400190565b60405160208183030381529060405285600181518110610e8857610e88611a4c565b60200260200101819052508089604051602001610ec39291906001600160a01b039290921682526001600160801b0316602082015260400190565b60405160208183030381529060405285600281518110610ee557610ee5611a4c565b60200260200101819052508285604051602001610f03929190611d9f565b604051602081830303815290604052845f81518110610f2457610f24611a4c565b602090810291909101015260405163095ea7b360e01b81526001600160a01b037f00000000000000000000000000000000000000000000000000000000000000001660048201525f196024820152731c7d4b196cb0c7b01d743fbc6116a902379c72389063095ea7b3906044016020604051808303815f875af1158015610fad573d5f5f3e3d5ffd5b505050506040513d601f19601f82011682018060405250810190610fd19190611bc1565b506040516387517c4560e01b8152731c7d4b196cb0c7b01d743fbc6116a902379c723860048201526001600160a01b037f0000000000000000000000000000000000000000000000000000000000000000811660248301526001600160801b038c16604483015265ffffffffffff8a1660648301527f000000000000000000000000000000000000000000000000000000000000000016906387517c45906084015f604051808303815f87803b158015611089575f5ffd5b505af115801561109b573d5f5f3e3d5ffd5b5050604051630d64d59360e21b81526001600160a01b037f0000000000000000000000000000000000000000000000000000000000000000169250633593564c91506110ef90899088908d90600401611dc3565b5f604051808303815f87803b158015611106575f5ffd5b505af1158015611118573d5f5f3e3d5ffd5b505050508a611128578b5161112e565b8b602001515b6040516370a0823160e01b81523060048201526001600160a01b0391909116906370a0823190602401602060405180830381865afa158015611172573d5f5f3e3d5ffd5b505050506040513d601f19601f820116820180604052508101906111969190611c0a565b9650886001600160801b03168710156111f15760405162461bcd60e51b815260206004820152601a60248201527f496e73756666696369656e74206f757470757420616d6f756e7400000000000060448201526064016104ed565b50505050505095945050505050565b5f826112125761120f5f611446565b92505b6112268367ffffffffffffffff841661145c565b90505b92915050565b5f826112415761123e5f611446565b92505b61124b8383611522565b5090919050565b5f82611264576112615f611446565b92505b81611275576112725f611446565b91505b61122683835f6115a9565b5f816112925761128f5f611446565b91505b61129c8230611689565b5090565b5f826112b2576112af5f611446565b92505b61124b8383611689565b5f80546001600160a01b03831682526004602052604090912054101561130a575f80546001600160a01b0383168252600460205260408220556003805490919061130590611c21565b909155505b50565b5f6112298261131c575f61131f565b60015b60ff165f6116e2565b5f826112b2576112af5f61130d565b5f466001036113465750600190565b4662aa36a703611357575061271190565b46617a690361136657505f1990565b505f90565b5f8161137d5761137a5f611446565b91505b61129c8261179f565b7f9e7b61f58c47dc699ac88507c4f5bb9f121c03808c5676a8078fe583e4649702546040516378542ead60e01b81525f917f9e7b61f58c47dc699ac88507c4f5bb9f121c03808c5676a8078fe583e4649700916001600160a01b03909116906378542ead906113fd90889088908890600401611df8565b6020604051808303815f875af1158015611419573d5f5f3e3d5ffd5b505050506040513d601f19601f8201168201806040525081019061143d9190611bc1565b95945050505050565b5f6112298267ffffffffffffffff1660056116e2565b5f600160f81b817f9e7b61f58c47dc699ac88507c4f5bb9f121c03808c5676a8078fe583e46497006001810154604051635a53accb60e01b815260048101889052602481018790527fff00000000000000000000000000000000000000000000000000000000000000851660448201529192506001600160a01b031690635a53accb906064016020604051808303815f875af11580156114fe573d5f5f3e3d5ffd5b505050506040513d601f19601f8201168201806040525081019061143d9190611c0a565b7f9e7b61f58c47dc699ac88507c4f5bb9f121c03808c5676a8078fe583e46497008054604051630f8e573b60e21b8152600481018590526001600160a01b03848116602483015290911690633e395cec906044015b5f604051808303815f87803b15801561158e575f5ffd5b505af11580156115a0573d5f5f3e3d5ffd5b50505050505050565b5f5f82156115bc5750600160f81b6115bf565b505f5b5f7f9e7b61f58c47dc699ac88507c4f5bb9f121c03808c5676a8078fe583e4649700600181015460405163022f65e760e31b815260048101899052602481018890527fff00000000000000000000000000000000000000000000000000000000000000851660448201529192506001600160a01b03169063117b2f38906064016020604051808303815f875af115801561165b573d5f5f3e3d5ffd5b505050506040513d601f19601f8201168201806040525081019061167f9190611c0a565b9695505050505050565b7f9e7b61f58c47dc699ac88507c4f5bb9f121c03808c5676a8078fe583e46497008054604051635ca4b5b160e11b8152600481018590526001600160a01b0384811660248301529091169063b9496b6290604401611577565b7f9e7b61f58c47dc699ac88507c4f5bb9f121c03808c5676a8078fe583e464970154604051639cd07acb60e01b81525f917f9e7b61f58c47dc699ac88507c4f5bb9f121c03808c5676a8078fe583e4649700916001600160a01b0390911690639cd07acb906117579087908790600401611e30565b6020604051808303815f875af1158015611773573d5f5f3e3d5ffd5b505050506040513d601f19601f820116820180604052508101906117979190611c0a565b949350505050565b6040805160018082528183019092527f9e7b61f58c47dc699ac88507c4f5bb9f121c03808c5676a8078fe583e4649700915f91906020808301908036833701905050905082815f815181106117f6576117f6611a4c565b60209081029190910101528154604051637d6e912360e11b81526001600160a01b039091169063fadd224690611577908490600401611e60565b634e487b7160e01b5f52604160045260245ffd5b5f82601f830112611853575f5ffd5b813567ffffffffffffffff81111561186d5761186d611830565b604051601f8201601f19908116603f0116810167ffffffffffffffff8111828210171561189c5761189c611830565b6040528181528382016020018510156118b3575f5ffd5b816020850160208301375f918101602001919091529392505050565b5f5f604083850312156118e0575f5ffd5b823567ffffffffffffffff8111156118f6575f5ffd5b61190285828601611844565b925050602083013567ffffffffffffffff81111561191e575f5ffd5b61192a85828601611844565b9150509250929050565b5f60208284031215611944575f5ffd5b5035919050565b80356001600160a01b0381168114611961575f5ffd5b919050565b5f5f5f5f5f6080868803121561197a575f5ffd5b6119838661194b565b94506119916020870161194b565b935060408601359250606086013567ffffffffffffffff8111156119b3575f5ffd5b8601601f810188136119c3575f5ffd5b803567ffffffffffffffff8111156119d9575f5ffd5b8860208284010111156119ea575f5ffd5b959894975092955050506020019190565b5f5f60408385031215611a0c575f5ffd5b82359150611a1c6020840161194b565b90509250929050565b634e487b7160e01b5f52601160045260245ffd5b8181038181111561122957611229611a25565b634e487b7160e01b5f52603260045260245ffd5b5f60208284031215611a70575f5ffd5b815167ffffffffffffffff81168114611a87575f5ffd5b9392505050565b5f81518084528060208401602086015e5f602082860101526020601f19601f83011685010191505092915050565b60208152611b1c6020820183516001600160a01b0381511682526001600160a01b03602082015116602083015262ffffff6040820151166040830152606081015160020b60608301526001600160a01b0360808201511660808301525050565b6020820151151560c08201526001600160801b0360408301511660e08201525f606083015161010080840152611797610120840182611a8e565b5f5f60408385031215611b67575f5ffd5b505080516020909101519092909150565b808202811582820484141761122957611229611a25565b5f82611ba957634e487b7160e01b5f52601260045260245ffd5b500490565b8082018082111561122957611229611a25565b5f60208284031215611bd1575f5ffd5b81518015158114611a87575f5ffd5b67ffffffffffffffff8181168382160290811690818114611c0357611c03611a25565b5092915050565b5f60208284031215611c1a575f5ffd5b5051919050565b5f60018201611c3257611c32611a25565b5060010190565b5f8151808452602084019350602083015f5b82811015611c69578151865260209586019590910190600101611c4b565b5093949350505050565b604081525f611c856040830185611c39565b828103602084015261143d8185611a8e565b60208152611cf76020820183516001600160a01b0381511682526001600160a01b03602082015116602083015262ffffff6040820151166040830152606081015160020b60608301526001600160a01b0360808201511660808301525050565b6020820151151560c08201526001600160801b0360408301511660e08201526001600160801b036060830151166101008201525f608083015161012080840152611797610140840182611a8e565b5f82825180855260208501945060208160051b830101602085015f5b83811015611d9357601f19858403018852611d7d838351611a8e565b6020988901989093509190910190600101611d61565b50909695505050505050565b604081525f611db16040830185611a8e565b828103602084015261143d8185611d45565b606081525f611dd56060830186611a8e565b8281036020840152611de78186611d45565b915050826040830152949350505050565b606081525f611e0a6060830186611c39565b8281036020840152611e1c8186611a8e565b9050828103604084015261167f8185611a8e565b8281526040810160548310611e5357634e487b7160e01b5f52602160045260245ffd5b8260208301529392505050565b602081525f6112266020830184611c3956fea164736f6c634300081b000a",
  "devdoc": {
    "kind": "dev",
    "methods": {
      "callNextRound()": {
        "details": "Calls the Gateway to request decryption of the net amount (supply or withdraw) to be executed on AAVE, based on all user requests collected during the round."
      },
      "executeRound(bytes,bytes)": {
        "details": "Based on the decrypted net amount, either supplies or withdraws funds from AAVE.",
        "params": {
          "abiEncodedClearValues": "Encoded clear values containing the decrypted net amount for the round",
          "decryptionProof": "Proof of correct decryption provided by the Gateway"
        }
      },
      "onConfidentialTransferReceived(address,address,bytes32,bytes)": {
        "params": {
          "data": "Additional data (not used)",
          "eAmount": "Encrypted amount to deposit",
          "from": "User address providing the liquidity",
          "operator": "Confidential token address. (Expected to be the wrapper)"
        },
        "returns": {
          "success": "indicating successful receipt"
        }
      }
    },
    "version": 1
  },
  "userdoc": {
    "errors": {
      "InvalidKMSSignatures()": [
        {
          "notice": "Returned if the returned KMS signatures are not valid."
        }
      ],
      "ZamaProtocolUnsupported()": [
        {
          "notice": "Returned if the Zama protocol is not supported on the current chain"
        }
      ]
    },
    "events": {
      "PublicDecryptionVerified(bytes32[],bytes)": {
        "notice": "This event is emitted when public decryption has been successfully verified."
      }
    },
    "kind": "user",
    "methods": {
      "USDC()": {
        "notice": "Addresses defined by uniswap on sepolia"
      },
      "cUSDC()": {
        "notice": "Addresses of the confidential wrapper for the underlying asset"
      },
      "callNextRound()": {
        "notice": "Finalizes the current round and initiates execution of aggregated operations."
      },
      "currentNumberOfUsers()": {
        "notice": "Current number of distinct users in the lending pool."
      },
      "executeRound(bytes,bytes)": {
        "notice": "Executes the current round by performing the net operation on AAVE and updating rewards."
      },
      "lastUpdateTime()": {
        "notice": "Last round timestamps."
      },
      "onConfidentialTransferReceived(address,address,bytes32,bytes)": {
        "notice": "Deposit confidential liquidity into the contract"
      },
      "roundDelta(uint256)": {
        "notice": "Track per round the encrypted liquidity delta"
      }
    },
    "notice": "FIXME: Can't we create a single base contract that abstracts all the round logic. Too much similarity with the lending contract, we can have a base contract that handle all the round logic and then have the swap and lending contract inheriting from it. See depending of hackathon time available",
    "version": 1
  },
  "storageLayout": {
    "storage": [
      {
        "astId": 49591,
        "contract": "contracts/ConfidentialSwap.sol:ConfidentialSwap",
        "label": "currentRound",
        "offset": 0,
        "slot": "0",
        "type": "t_uint256"
      },
      {
        "astId": 49594,
        "contract": "contracts/ConfidentialSwap.sol:ConfidentialSwap",
        "label": "nextRoundDelta",
        "offset": 0,
        "slot": "1",
        "type": "t_userDefinedValueType(euint64)50474"
      },
      {
        "astId": 49597,
        "contract": "contracts/ConfidentialSwap.sol:ConfidentialSwap",
        "label": "lastUpdateTime",
        "offset": 0,
        "slot": "2",
        "type": "t_uint256"
      },
      {
        "astId": 49600,
        "contract": "contracts/ConfidentialSwap.sol:ConfidentialSwap",
        "label": "currentNumberOfUsers",
        "offset": 0,
        "slot": "3",
        "type": "t_uint256"
      },
      {
        "astId": 49605,
        "contract": "contracts/ConfidentialSwap.sol:ConfidentialSwap",
        "label": "_userLastRound",
        "offset": 0,
        "slot": "4",
        "type": "t_mapping(t_address,t_uint256)"
      },
      {
        "astId": 49612,
        "contract": "contracts/ConfidentialSwap.sol:ConfidentialSwap",
        "label": "userAmounts",
        "offset": 0,
        "slot": "5",
        "type": "t_mapping(t_uint256,t_mapping(t_address,t_userDefinedValueType(euint64)50474))"
      },
      {
        "astId": 49618,
        "contract": "contracts/ConfidentialSwap.sol:ConfidentialSwap",
        "label": "roundDelta",
        "offset": 0,
        "slot": "6",
        "type": "t_mapping(t_uint256,t_userDefinedValueType(euint64)50474)"
      },
      {
        "astId": 49622,
        "contract": "contracts/ConfidentialSwap.sol:ConfidentialSwap",
        "label": "executed",
        "offset": 0,
        "slot": "7",
        "type": "t_mapping(t_uint256,t_bool)"
      },
      {
        "astId": 49626,
        "contract": "contracts/ConfidentialSwap.sol:ConfidentialSwap",
        "label": "totalRequestedAmount",
        "offset": 0,
        "slot": "8",
        "type": "t_mapping(t_uint256,t_uint64)"
      },
      {
        "astId": 49630,
        "contract": "contracts/ConfidentialSwap.sol:ConfidentialSwap",
        "label": "totalReceivedAmount",
        "offset": 0,
        "slot": "9",
        "type": "t_mapping(t_uint256,t_uint64)"
      },
      {
        "astId": 49653,
        "contract": "contracts/ConfidentialSwap.sol:ConfidentialSwap",
        "label": "cUSDC",
        "offset": 0,
        "slot": "10",
        "type": "t_address"
      },
      {
        "astId": 49655,
        "contract": "contracts/ConfidentialSwap.sol:ConfidentialSwap",
        "label": "cUNI",
        "offset": 0,
        "slot": "11",
        "type": "t_address"
      }
    ],
    "types": {
      "t_address": {
        "encoding": "inplace",
        "label": "address",
        "numberOfBytes": "20"
      },
      "t_bool": {
        "encoding": "inplace",
        "label": "bool",
        "numberOfBytes": "1"
      },
      "t_mapping(t_address,t_uint256)": {
        "encoding": "mapping",
        "key": "t_address",
        "label": "mapping(address => uint256)",
        "numberOfBytes": "32",
        "value": "t_uint256"
      },
      "t_mapping(t_address,t_userDefinedValueType(euint64)50474)": {
        "encoding": "mapping",
        "key": "t_address",
        "label": "mapping(address => euint64)",
        "numberOfBytes": "32",
        "value": "t_userDefinedValueType(euint64)50474"
      },
      "t_mapping(t_uint256,t_bool)": {
        "encoding": "mapping",
        "key": "t_uint256",
        "label": "mapping(uint256 => bool)",
        "numberOfBytes": "32",
        "value": "t_bool"
      },
      "t_mapping(t_uint256,t_mapping(t_address,t_userDefinedValueType(euint64)50474))": {
        "encoding": "mapping",
        "key": "t_uint256",
        "label": "mapping(uint256 => mapping(address => euint64))",
        "numberOfBytes": "32",
        "value": "t_mapping(t_address,t_userDefinedValueType(euint64)50474)"
      },
      "t_mapping(t_uint256,t_uint64)": {
        "encoding": "mapping",
        "key": "t_uint256",
        "label": "mapping(uint256 => uint64)",
        "numberOfBytes": "32",
        "value": "t_uint64"
      },
      "t_mapping(t_uint256,t_userDefinedValueType(euint64)50474)": {
        "encoding": "mapping",
        "key": "t_uint256",
        "label": "mapping(uint256 => euint64)",
        "numberOfBytes": "32",
        "value": "t_userDefinedValueType(euint64)50474"
      },
      "t_uint256": {
        "encoding": "inplace",
        "label": "uint256",
        "numberOfBytes": "32"
      },
      "t_uint64": {
        "encoding": "inplace",
        "label": "uint64",
        "numberOfBytes": "8"
      },
      "t_userDefinedValueType(euint64)50474": {
        "encoding": "inplace",
        "label": "euint64",
        "numberOfBytes": "32"
      }
    }
  }
}